{
    "contractName": "LotteryStudy",
    "abi": [
        {
            "constant": false,
            "inputs": [],
            "name": "Lottery",
            "outputs": [],
            "payable": false,
            "stateMutability": "nonpayable",
            "type": "function"
        },
        {
            "constant": true,
            "inputs": [],
            "name": "manager",
            "outputs": [
                {
                    "name": "",
                    "type": "address"
                }
            ],
            "payable": false,
            "stateMutability": "view",
            "type": "function"
        },
        {
            "constant": true,
            "inputs": [
                {
                    "name": "",
                    "type": "uint256"
                }
            ],
            "name": "joining",
            "outputs": [
                {
                    "name": "",
                    "type": "address"
                }
            ],
            "payable": false,
            "stateMutability": "view",
            "type": "function"
        },
        {
            "constant": true,
            "inputs": [],
            "name": "getJoining",
            "outputs": [
                {
                    "name": "",
                    "type": "address[]"
                }
            ],
            "payable": false,
            "stateMutability": "view",
            "type": "function"
        },
        {
            "constant": true,
            "inputs": [],
            "name": "ValueofLottery",
            "outputs": [
                {
                    "name": "",
                    "type": "uint256"
                }
            ],
            "payable": false,
            "stateMutability": "view",
            "type": "function"
        },
        {
            "constant": true,
            "inputs": [],
            "name": "Winner",
            "outputs": [
                {
                    "name": "",
                    "type": "address"
                }
            ],
            "payable": false,
            "stateMutability": "view",
            "type": "function"
        },
        {
            "constant": false,
            "inputs": [],
            "name": "PickWinner",
            "outputs": [],
            "payable": false,
            "stateMutability": "nonpayable",
            "type": "function"
        },
        {
            "constant": false,
            "inputs": [],
            "name": "enter",
            "outputs": [],
            "payable": true,
            "stateMutability": "payable",
            "type": "function"
        },
        {
            "inputs": [
                {
                    "name": "_manager",
                    "type": "address"
                }
            ],
            "payable": false,
            "stateMutability": "nonpayable",
            "type": "constructor"
        }
    ],
    "bytecode": "608060405234801561001057600080fd5b50604051602080610543833981016040525160008054600160a060020a03909216600160a060020a03199092169190911790556104f1806100526000396000f30060806040526004361061008d5763ffffffff7c01000000000000000000000000000000000000000000000000000000006000350416634245b0f78114610092578063481c6a75146100a95780637c55c4da146100da57806394880c23146100f257806399f1b7c614610157578063b2b98ed21461017e578063b7d2c65414610193578063e97dcb62146101a8575b600080fd5b34801561009e57600080fd5b506100a76101b0565b005b3480156100b557600080fd5b506100be6101d1565b60408051600160a060020a039092168252519081900360200190f35b3480156100e657600080fd5b506100be6004356101e0565b3480156100fe57600080fd5b50610107610208565b60408051602080825283518183015283519192839290830191858101910280838360005b8381101561014357818101518382015260200161012b565b505050509050019250505060405180910390f35b34801561016357600080fd5b5061016c61026b565b60408051918252519081900360200190f35b34801561018a57600080fd5b506100be610279565b34801561019f57600080fd5b506100a7610288565b6100a7610370565b6000805473ffffffffffffffffffffffffffffffffffffffff191633179055565b600054600160a060020a031681565b60018054829081106101ee57fe5b600091825260209091200154600160a060020a0316905081565b6060600180548060200260200160405190810160405280929190818152602001828054801561026057602002820191906000526020600020905b8154600160a060020a03168152600190910190602001808311610242575b505050505090505b90565b662386f26fc1000030310490565b600254600160a060020a031681565b60008054600160a060020a031633146102a057600080fd5b6001546102ab6103c0565b8115156102b457fe5b0690506001818154811015156102c657fe5b6000918252602090912001546002805473ffffffffffffffffffffffffffffffffffffffff1916600160a060020a03909216919091179055600180548290811061030c57fe5b6000918252602082200154604051600160a060020a0390911691303180156108fc02929091818181858888f1935050505015801561034e573d6000803e3d6000fd5b50604080516000815260208101918290525161036c91600191610422565b5050565b6001805480820182556000919091527fb10e2d527612073b26eecdfd717e6a320cf44b4afac2b0732d9fcbe2b7fa0cf601805473ffffffffffffffffffffffffffffffffffffffff191633179055565b60004442600160405180848152602001838152602001828054801561040e57602002820191906000526020600020905b8154600160a060020a031681526001909101906020018083116103f0575b505060405190819003902094505050505090565b828054828255906000526020600020908101928215610484579160200282015b82811115610484578251825473ffffffffffffffffffffffffffffffffffffffff1916600160a060020a03909116178255602090920191600190910190610442565b50610490929150610494565b5090565b61026891905b8082111561049057805473ffffffffffffffffffffffffffffffffffffffff1916815560010161049a5600a165627a7a723058208758d43063faf500c3add71e2545ef7e7feddb6fdb04e88b9040dd0c5866855d0029",
    "sourcePath": "c:/Users/nawap/OneDrive/Desktop/Developers/Study/Solidity/Ethereum_and_Solidity_The_Complete_Developer's_Guide/Lottery/contracts/Lottery.sol",
    "compiler": {
        "name": "solc",
        "version": "0.4.26+commit.4563c3fc"
    },
    "functionHashes": {
        "Lottery()": "4245b0f7",
        "PickWinner()": "b7d2c654",
        "ValueofLottery()": "99f1b7c6",
        "Winner()": "b2b98ed2",
        "enter()": "e97dcb62",
        "getJoining()": "94880c23",
        "joining(uint256)": "7c55c4da",
        "manager()": "481c6a75"
    },
    "gasEstimates": {
        "creation": {
            "codeDepositCost": "253000",
            "executionCost": "20719",
            "totalCost": "273719"
        },
        "external": {
            "Lottery()": "20353",
            "PickWinner()": "infinite",
            "ValueofLottery()": "679",
            "Winner()": "647",
            "enter()": "40719",
            "getJoining()": "infinite",
            "joining(uint256)": "881",
            "manager()": "559"
        },
        "internal": {
            "random()": "infinite"
        }
    }
}